{
  "contractName": "Calculate",
  "abi": [
    {
      "inputs": [
        {
          "internalType": "int256",
          "name": "param1",
          "type": "int256"
        },
        {
          "internalType": "int256",
          "name": "param2",
          "type": "int256"
        }
      ],
      "name": "add",
      "outputs": [
        {
          "internalType": "int256",
          "name": "x",
          "type": "int256"
        }
      ],
      "stateMutability": "pure",
      "type": "function",
      "constant": true
    },
    {
      "inputs": [
        {
          "internalType": "int256",
          "name": "param1",
          "type": "int256"
        },
        {
          "internalType": "int256",
          "name": "param2",
          "type": "int256"
        }
      ],
      "name": "minus",
      "outputs": [
        {
          "internalType": "int256",
          "name": "x",
          "type": "int256"
        }
      ],
      "stateMutability": "pure",
      "type": "function",
      "constant": true
    },
    {
      "inputs": [
        {
          "internalType": "int256",
          "name": "param1",
          "type": "int256"
        },
        {
          "internalType": "int256",
          "name": "param2",
          "type": "int256"
        }
      ],
      "name": "multiple",
      "outputs": [
        {
          "internalType": "int256",
          "name": "x",
          "type": "int256"
        }
      ],
      "stateMutability": "pure",
      "type": "function",
      "constant": true
    },
    {
      "inputs": [
        {
          "internalType": "int256",
          "name": "param1",
          "type": "int256"
        },
        {
          "internalType": "int256",
          "name": "param2",
          "type": "int256"
        }
      ],
      "name": "divide",
      "outputs": [
        {
          "internalType": "int256",
          "name": "x",
          "type": "int256"
        }
      ],
      "stateMutability": "pure",
      "type": "function",
      "constant": true
    },
    {
      "inputs": [
        {
          "internalType": "int256",
          "name": "param1",
          "type": "int256"
        }
      ],
      "name": "square",
      "outputs": [
        {
          "internalType": "int256",
          "name": "x",
          "type": "int256"
        }
      ],
      "stateMutability": "pure",
      "type": "function",
      "constant": true
    },
    {
      "inputs": [
        {
          "internalType": "uint256",
          "name": "x",
          "type": "uint256"
        }
      ],
      "name": "square_root",
      "outputs": [
        {
          "internalType": "uint256",
          "name": "y",
          "type": "uint256"
        }
      ],
      "stateMutability": "pure",
      "type": "function",
      "constant": true
    }
  ],
  "bytecode": "0x608060405234801561001057600080fd5b50610789806100206000396000f3fe608060405234801561001057600080fd5b50600436106100625760003560e01c80631858c77d146100675780632797ec4514610097578063a5f3c23b146100c7578063a6f36634146100f7578063b0008fa214610127578063f598423614610157575b600080fd5b610081600480360381019061007c91906102a1565b610187565b60405161008e91906102f0565b60405180910390f35b6100b160048036038101906100ac919061030b565b61019d565b6040516100be91906102f0565b60405180910390f35b6100e160048036038101906100dc91906102a1565b6101b2565b6040516100ee91906102f0565b60405180910390f35b610111600480360381019061010c919061036e565b6101c8565b60405161011e91906103aa565b60405180910390f35b610141600480360381019061013c91906102a1565b610225565b60405161014e91906102f0565b60405180910390f35b610171600480360381019061016c91906102a1565b61023b565b60405161017e91906102f0565b60405180910390f35b6000818361019591906103f4565b905092915050565b600081826101ab9190610488565b9050919050565b600081836101c0919061059f565b905092915050565b60008060026001846101da9190610633565b6101e491906106b8565b90508291505b8181101561021f57809150600281828561020491906106b8565b61020e9190610633565b61021891906106b8565b90506101ea565b50919050565b600081836102339190610488565b905092915050565b60008082141561025157633b9aca009050610260565b818361025d91906106e9565b90505b92915050565b600080fd5b6000819050919050565b61027e8161026b565b811461028957600080fd5b50565b60008135905061029b81610275565b92915050565b600080604083850312156102b8576102b7610266565b5b60006102c68582860161028c565b92505060206102d78582860161028c565b9150509250929050565b6102ea8161026b565b82525050565b600060208201905061030560008301846102e1565b92915050565b60006020828403121561032157610320610266565b5b600061032f8482850161028c565b91505092915050565b6000819050919050565b61034b81610338565b811461035657600080fd5b50565b60008135905061036881610342565b92915050565b60006020828403121561038457610383610266565b5b600061039284828501610359565b91505092915050565b6103a481610338565b82525050565b60006020820190506103bf600083018461039b565b92915050565b7f4e487b7100000000000000000000000000000000000000000000000000000000600052601160045260246000fd5b60006103ff8261026b565b915061040a8361026b565b9250827f800000000000000000000000000000000000000000000000000000000000000001821260008412151615610445576104446103c5565b5b827f7fffffffffffffffffffffffffffffffffffffffffffffffffffffffffffffff01821360008412161561047d5761047c6103c5565b5b828203905092915050565b60006104938261026b565b915061049e8361026b565b9250827f7fffffffffffffffffffffffffffffffffffffffffffffffffffffffffffffff04821160008413600084131616156104dd576104dc6103c5565b5b817f8000000000000000000000000000000000000000000000000000000000000000058312600084126000841316161561051a576105196103c5565b5b827f80000000000000000000000000000000000000000000000000000000000000000582126000841360008412161615610557576105566103c5565b5b827f7fffffffffffffffffffffffffffffffffffffffffffffffffffffffffffffff0582126000841260008412161615610594576105936103c5565b5b828202905092915050565b60006105aa8261026b565b91506105b58361026b565b9250817f7fffffffffffffffffffffffffffffffffffffffffffffffffffffffffffffff038313600083121516156105f0576105ef6103c5565b5b817f8000000000000000000000000000000000000000000000000000000000000000038312600083121615610628576106276103c5565b5b828201905092915050565b600061063e82610338565b915061064983610338565b9250827fffffffffffffffffffffffffffffffffffffffffffffffffffffffffffffffff0382111561067e5761067d6103c5565b5b828201905092915050565b7f4e487b7100000000000000000000000000000000000000000000000000000000600052601260045260246000fd5b60006106c382610338565b91506106ce83610338565b9250826106de576106dd610689565b5b828204905092915050565b60006106f48261026b565b91506106ff8361026b565b92508261070f5761070e610689565b5b600160000383147f800000000000000000000000000000000000000000000000000000000000000083141615610748576107476103c5565b5b82820590509291505056fea2646970667358221220ca174f8bfba962f9673c2ce608ee6cb87862091f14f5b80a4d54cfe5f063762b64736f6c634300080b0033",
  "immutableReferences": {},
  "source": "// SPDX-License-Identifier: MIT\r\npragma solidity >=0.4.22 <0.9.0;\r\n\r\ncontract Calculate {\r\n  function add(int param1, int param2) public pure returns (int x){\r\n    return param1 + param2;\r\n  }\r\n  function minus(int param1, int param2) public pure returns (int x){\r\n    return param1 - param2;\r\n  }\r\n  function multiple(int param1, int param2) public pure returns (int x){\r\n    return param1 * param2;\r\n  }\r\n  function divide(int param1, int param2) public pure returns (int x){\r\n    if (param2 == 0) return 1E9;\r\n    return param1 / param2;\r\n  }\r\n  function square(int param1) public pure returns (int x){\r\n    return param1 * param1;\r\n  }\r\n  function square_root(uint x) public pure returns (uint y){\r\n        uint z = (x + 1) / 2;\r\n        y = x;\r\n        while (z < y) {\r\n            y = z;\r\n            z = (x / z + z) / 2;\r\n        }\r\n  }\r\n}\r\n",
  "sourcePath": "F:\\Blockchain\\zproject\\calculator-eth\\smart_contracts\\contracts\\Calculate.sol",
  "compiler": {
    "name": "solc",
    "version": "0.8.11+commit.d7f03943.Emscripten.clang"
  },
  "schemaVersion": "3.4.4",
  "updatedAt": "2022-01-26T17:00:36.555Z",
  "networkType": "ethereum",
  "devdoc": {
    "kind": "dev",
    "methods": {},
    "version": 1
  },
  "userdoc": {
    "kind": "user",
    "methods": {},
    "version": 1
  }
}